:040000008031222801
:100008007E14803120007F08F1000B1F1D2821007D
:10001800101E15282000101E15288031C720803199
:100028001D282100901E1D282000901E1D288031AB
:10003800FF2071082000FF007E100900803124286D
:10004800FA01FB0120308400003085001430813132
:1000580047217E10200081311A2941344434433429
:100068002034563461346C347534653420343D346E
:100078002034483465346C346C346F34203448345C
:1000880065346C346C346F34203420347434683400
:10009800693473342034693473342034613420343F
:1000A8006834753467346534203473347434723486
:1000B80069346E34673420340D3420340A34003403
:1000C800F30020003308031965282100101A70284E
:1000D800730823009A00842810127308F2007B0822
:1000E800283E86008701720881000130F2007208FC
:1000F800FB0708307B020318FB0101302000B30224
:1001080021001016080022008C018D018E01373065
:1001180021008C0070308D00FF308E00CF3023001E
:100128008E00D0308D0017308C0024008D018C019A
:100138008E012100951725008C018D018E010D304F
:100148003C00A40012303D009F0008007730F70003
:1001580077082000B4007608F8007508F700F50A5B
:100168000319F60A77088400780885000008F90062
:1001780079082000B50035080319080035088131D1
:100188004D218031AF280830200033020318E128C0
:100198007A08283E86008701010823009A0001306A
:1001A800F0007008FA0708307A020318FA010130E3
:1001B800F00070082000B3070800210010120800A2
:1001C800210090121012083023009F0090309D00EB
:1001D80024309E00A0309B0001309C00FB01FA01F6
:1001E8000830F20072082000B300B201B101B0017A
:1001F80021009016080023009D1C04291D121D16BD
:100208001908F00020003208203E86008701700897
:1002180081000130F0007008B2070830320203187C
:10022800B2010130F0007008B007080081313E21AA
:1002380081318B170B173130F5008030F600803193
:10024800AA20813121302000B7007830B6009830DC
:10025800890B2C29B60B2C29B70B2C2900001F2938
:1002680070302100990098012200960121001A1B84
:1002780008003A2980318720813181313421813148
:100288008031E4200800640080010131890B48298D
:0C0298000034F400740880316420080079
:020000040001F9
:06000E00FC3FFF3F9F3F95
:00000001FF
